{
  "contractName": "Calculator",
  "abi": [
    {
      "inputs": [
        {
          "internalType": "uint8",
          "name": "a",
          "type": "uint8"
        },
        {
          "internalType": "uint8",
          "name": "b",
          "type": "uint8"
        }
      ],
      "name": "add_",
      "outputs": [
        {
          "internalType": "uint8",
          "name": "",
          "type": "uint8"
        }
      ],
      "stateMutability": "pure",
      "type": "function",
      "constant": true
    },
    {
      "inputs": [
        {
          "internalType": "uint8",
          "name": "a",
          "type": "uint8"
        },
        {
          "internalType": "uint8",
          "name": "b",
          "type": "uint8"
        }
      ],
      "name": "minus_",
      "outputs": [
        {
          "internalType": "uint8",
          "name": "",
          "type": "uint8"
        }
      ],
      "stateMutability": "pure",
      "type": "function",
      "constant": true
    },
    {
      "inputs": [
        {
          "internalType": "uint8",
          "name": "a",
          "type": "uint8"
        },
        {
          "internalType": "uint8",
          "name": "b",
          "type": "uint8"
        }
      ],
      "name": "multy_",
      "outputs": [
        {
          "internalType": "uint8",
          "name": "",
          "type": "uint8"
        }
      ],
      "stateMutability": "pure",
      "type": "function",
      "constant": true
    },
    {
      "inputs": [
        {
          "internalType": "uint8",
          "name": "a",
          "type": "uint8"
        },
        {
          "internalType": "uint8",
          "name": "b",
          "type": "uint8"
        }
      ],
      "name": "divide_",
      "outputs": [
        {
          "internalType": "uint8",
          "name": "",
          "type": "uint8"
        }
      ],
      "stateMutability": "pure",
      "type": "function",
      "constant": true
    }
  ],
  "bytecode": "0x608060405234801561001057600080fd5b506106a9806100206000396000f3fe608060405234801561001057600080fd5b506004361061004c5760003560e01c8063301fe0031461005157806343c1ac8514610081578063b01daf9f146100b1578063df082b6d146100e1575b600080fd5b61006b600480360381019061006691906103eb565b610111565b604051610078919061043a565b60405180910390f35b61009b600480360381019061009691906103eb565b6101cd565b6040516100a8919061043a565b60405180910390f35b6100cb60048036038101906100c691906103eb565b610236565b6040516100d8919061043a565b60405180910390f35b6100fb60048036038101906100f691906103eb565b6102f1565b604051610108919061043a565b60405180910390f35b60008260ff1682846101239190610484565b60ff1611610166576040517f08c379a000000000000000000000000000000000000000000000000000000000815260040161015d90610518565b60405180910390fd5b8160ff1682846101769190610484565b60ff16116101b9576040517f08c379a00000000000000000000000000000000000000000000000000000000081526004016101b090610518565b60405180910390fd5b81836101c59190610484565b905092915050565b60008260ff1682846101df9190610567565b60ff1610610222576040517f08c379a000000000000000000000000000000000000000000000000000000000815260040161021990610518565b60405180910390fd5b818361022e9190610567565b905092915050565b60008260ff1682846102489190610598565b60ff161061028b576040517f08c379a000000000000000000000000000000000000000000000000000000000815260040161028290610518565b60405180910390fd5b600082846102999190610598565b60ff1610156102dd576040517f08c379a00000000000000000000000000000000000000000000000000000000081526004016102d490610618565b60405180910390fd5b81836102e99190610598565b905092915050565b60008260ff1682846103039190610638565b60ff1611610346576040517f08c379a000000000000000000000000000000000000000000000000000000000815260040161033d90610518565b60405180910390fd5b8160ff1682846103569190610638565b60ff1611610399576040517f08c379a000000000000000000000000000000000000000000000000000000000815260040161039090610518565b60405180910390fd5b81836103a59190610638565b905092915050565b600080fd5b600060ff82169050919050565b6103c8816103b2565b81146103d357600080fd5b50565b6000813590506103e5816103bf565b92915050565b60008060408385031215610402576104016103ad565b5b6000610410858286016103d6565b9250506020610421858286016103d6565b9150509250929050565b610434816103b2565b82525050565b600060208201905061044f600083018461042b565b92915050565b7f4e487b7100000000000000000000000000000000000000000000000000000000600052601160045260246000fd5b600061048f826103b2565b915061049a836103b2565b92508260ff038211156104b0576104af610455565b5b828201905092915050565b600082825260208201905092915050565b7f206f776572666c6f77206f636375726564202100000000000000000000000000600082015250565b60006105026013836104bb565b915061050d826104cc565b602082019050919050565b60006020820190508181036000830152610531816104f5565b9050919050565b7f4e487b7100000000000000000000000000000000000000000000000000000000600052601260045260246000fd5b6000610572826103b2565b915061057d836103b2565b92508261058d5761058c610538565b5b828204905092915050565b60006105a3826103b2565b91506105ae836103b2565b9250828210156105c1576105c0610455565b5b828203905092915050565b7f6f776572666c6f77206f63637572656400000000000000000000000000000000600082015250565b60006106026010836104bb565b915061060d826105cc565b602082019050919050565b60006020820190508181036000830152610631816105f5565b9050919050565b6000610643826103b2565b915061064e836103b2565b92508160ff048311821515161561066857610667610455565b5b82820290509291505056fea2646970667358221220e51a21dc6d87ea63b811d5db117f7d6bc7d1fe43be2cf9a73bb3ea15414fd2ea64736f6c634300080f0033",
  "immutableReferences": {},
  "source": "// SPDX-License-Identifier: MIT\r\n\r\npragma solidity ^0.8.0;\r\n\r\n\r\ncontract Calculator{\r\n\r\n    function add_(uint8 a , uint8 b ) public pure returns(uint8){\r\n\r\n        require(a+b>a , \" owerflow occured !\");\r\n        require(a+b>b , \" owerflow occured !\");\r\n\r\n        return a+b;\r\n\r\n    }\r\n\r\n    function minus_(uint8 a , uint8 b ) public pure returns(uint8){\r\n\r\n        require(a-b<a , \" owerflow occured !\");\r\n        // require(a-b>=0 , \" owerflow occured !\");\r\n        if(a-b<0){\r\n\r\n            revert(\"owerflow occured\");\r\n        }\r\n\r\n     \r\n\r\n        return a-b;\r\n        \r\n        \r\n\r\n    }\r\n\r\n    function multy_(uint8 a , uint8 b ) public pure returns(uint8){\r\n\r\n        require(a*b>a , \" owerflow occured !\");\r\n        require(a*b>b , \" owerflow occured !\");\r\n\r\n        return a*b;\r\n\r\n    }\r\n\r\n    function divide_(uint8 a , uint8 b ) public pure returns(uint8){\r\n\r\n        require(a/b<a , \" owerflow occured !\");\r\n        return a/b;\r\n\r\n    }\r\n\r\n}",
  "sourcePath": "H:\\Alidity_4\\proj11\\Contract\\contracts\\Calculator.sol",
  "compiler": {
    "name": "solc",
    "version": "0.8.15+commit.e14f2714.Emscripten.clang"
  },
  "schemaVersion": "3.4.8",
  "updatedAt": "2022-08-22T06:00:23.846Z",
  "networkType": "ethereum",
  "devdoc": {
    "kind": "dev",
    "methods": {},
    "version": 1
  },
  "userdoc": {
    "kind": "user",
    "methods": {},
    "version": 1
  }
}