{
  "contractName": "Ballot",
  "abi": [
    {
      "inputs": [
        {
          "internalType": "uint8",
          "name": "proposalValue",
          "type": "uint8"
        }
      ],
      "stateMutability": "nonpayable",
      "type": "constructor"
    },
    {
      "inputs": [],
      "name": "WinnerCount",
      "outputs": [
        {
          "internalType": "uint256",
          "name": "",
          "type": "uint256"
        }
      ],
      "stateMutability": "view",
      "type": "function",
      "constant": true
    },
    {
      "inputs": [],
      "name": "WinnerID",
      "outputs": [
        {
          "internalType": "uint256",
          "name": "",
          "type": "uint256"
        }
      ],
      "stateMutability": "view",
      "type": "function",
      "constant": true
    },
    {
      "inputs": [],
      "name": "chairPerson",
      "outputs": [
        {
          "internalType": "address",
          "name": "",
          "type": "address"
        }
      ],
      "stateMutability": "view",
      "type": "function",
      "constant": true
    },
    {
      "inputs": [],
      "name": "nuuum",
      "outputs": [
        {
          "internalType": "uint256",
          "name": "",
          "type": "uint256"
        }
      ],
      "stateMutability": "view",
      "type": "function",
      "constant": true
    },
    {
      "inputs": [],
      "name": "startTime",
      "outputs": [
        {
          "internalType": "uint256",
          "name": "",
          "type": "uint256"
        }
      ],
      "stateMutability": "view",
      "type": "function",
      "constant": true
    },
    {
      "inputs": [
        {
          "internalType": "address",
          "name": "",
          "type": "address"
        }
      ],
      "name": "voters",
      "outputs": [
        {
          "internalType": "uint256",
          "name": "vote_id",
          "type": "uint256"
        },
        {
          "internalType": "uint256",
          "name": "voteWeidth",
          "type": "uint256"
        },
        {
          "internalType": "bool",
          "name": "voted",
          "type": "bool"
        }
      ],
      "stateMutability": "view",
      "type": "function",
      "constant": true
    },
    {
      "inputs": [],
      "name": "get_probNumber",
      "outputs": [
        {
          "internalType": "uint256",
          "name": "",
          "type": "uint256"
        }
      ],
      "stateMutability": "view",
      "type": "function",
      "constant": true
    },
    {
      "inputs": [],
      "name": "get_winnerID",
      "outputs": [
        {
          "internalType": "uint256",
          "name": "",
          "type": "uint256"
        }
      ],
      "stateMutability": "view",
      "type": "function",
      "constant": true
    },
    {
      "inputs": [],
      "name": "get_WinnerCount",
      "outputs": [
        {
          "internalType": "uint256",
          "name": "",
          "type": "uint256"
        }
      ],
      "stateMutability": "view",
      "type": "function",
      "constant": true
    },
    {
      "inputs": [
        {
          "internalType": "address",
          "name": "newVoter",
          "type": "address"
        }
      ],
      "name": "register",
      "outputs": [],
      "stateMutability": "nonpayable",
      "type": "function"
    },
    {
      "inputs": [
        {
          "internalType": "uint256",
          "name": "voteId",
          "type": "uint256"
        }
      ],
      "name": "vote_",
      "outputs": [],
      "stateMutability": "nonpayable",
      "type": "function"
    },
    {
      "inputs": [],
      "name": "count",
      "outputs": [],
      "stateMutability": "nonpayable",
      "type": "function"
    }
  ],
  "bytecode": "0x60806040526104d26005553480156200001757600080fd5b50604051620012363803806200123683398181016040528101906200003d9190620001d9565b33600360006101000a81548173ffffffffffffffffffffffffffffffffffffffff021916908373ffffffffffffffffffffffffffffffffffffffff1602179055508060ff166009819055504260068190555060005b8160ff16811015620000f757600060405180602001604052806000815250908060018154018082558091505060019003906000526020600020016000909190919091506000820151816000015550508080620000ee9062000244565b91505062000092565b506002806000600360009054906101000a900473ffffffffffffffffffffffffffffffffffffffff1673ffffffffffffffffffffffffffffffffffffffff1673ffffffffffffffffffffffffffffffffffffffff168152602001908152602001600020600101819055506000600160006101000a81548160ff021916908360028111156200018a576200018962000291565b5b021790555050620002c0565b600080fd5b600060ff82169050919050565b620001b3816200019b565b8114620001bf57600080fd5b50565b600081519050620001d381620001a8565b92915050565b600060208284031215620001f257620001f162000196565b5b60006200020284828501620001c2565b91505092915050565b7f4e487b7100000000000000000000000000000000000000000000000000000000600052601160045260246000fd5b6000819050919050565b600062000251826200023a565b91507fffffffffffffffffffffffffffffffffffffffffffffffffffffffffffffffff82036200028657620002856200020b565b5b600182019050919050565b7f4e487b7100000000000000000000000000000000000000000000000000000000600052602160045260246000fd5b610f6680620002d06000396000f3fe608060405234801561001057600080fd5b50600436106100b45760003560e01c806378e979251161007157806378e979251461015557806395290a1f14610173578063a3ec138d14610191578063d4d4b5ac146101c3578063f435b529146101e1578063fde32215146101ff576100b4565b806306661abd146100b95780634420e486146100c35780635a5b6cd3146100df5780635bfcf827146100fd57806373bd2b171461011957806378e8881c14610137575b600080fd5b6100c161021d565b005b6100dd60048036038101906100d89190610987565b610474565b005b6100e7610657565b6040516100f491906109cd565b60405180910390f35b61011760048036038101906101129190610a14565b610661565b005b61012161089b565b60405161012e91906109cd565b60405180910390f35b61013f6108a5565b60405161014c91906109cd565b60405180910390f35b61015d6108ab565b60405161016a91906109cd565b60405180910390f35b61017b6108b1565b60405161018891906109cd565b60405180910390f35b6101ab60048036038101906101a69190610987565b6108b7565b6040516101ba93929190610a5c565b60405180910390f35b6101cb6108ee565b6040516101d89190610aa2565b60405180910390f35b6101e9610914565b6040516101f691906109cd565b60405180910390f35b61020761091a565b60405161021491906109cd565b60405180910390f35b600360009054906101000a900473ffffffffffffffffffffffffffffffffffffffff1673ffffffffffffffffffffffffffffffffffffffff163373ffffffffffffffffffffffffffffffffffffffff16146102ad576040517f08c379a00000000000000000000000000000000000000000000000000000000081526004016102a490610b1a565b60405180910390fd5b60005b6000805490508110156103e857600854600082815481106102d4576102d3610b3a565b5b9060005260206000200160000154111561038057600081815481106102fc576102fb610b3a565b5b9060005260206000200160000154600881905550806007819055505b60006004805490501461035257600480548061033757610336610b69565b5b60019003818190600052602060002001600090559055610318565b60048190806001815401808255809150506001900390600052602060002001600090919091909150556103d5565b6008546000828154811061039757610396610b3a565b5b9060005260206000200160000154036103d45760048190806001815401808255809150506001900390600052602060002001600090919091909150555b5b80806103e090610bc7565b9150506102b0565b50600480805490504233604051602001610403929190610c78565b6040516020818303038152906040528051906020012060001c6104269190610cd3565b8154811061043757610436610b3a565b5b906000526020600020015460078190555060006007548154811061045e5761045d610b3a565b5b9060005260206000200160000154600881905550565b600360009054906101000a900473ffffffffffffffffffffffffffffffffffffffff1673ffffffffffffffffffffffffffffffffffffffff163373ffffffffffffffffffffffffffffffffffffffff1614610504576040517f08c379a00000000000000000000000000000000000000000000000000000000081526004016104fb90610b1a565b60405180910390fd5b803373ffffffffffffffffffffffffffffffffffffffff168173ffffffffffffffffffffffffffffffffffffffff1603610573576040517f08c379a000000000000000000000000000000000000000000000000000000000815260040161056a90610d50565b60405180910390fd5b8160001515600260008373ffffffffffffffffffffffffffffffffffffffff1673ffffffffffffffffffffffffffffffffffffffff16815260200190815260200160002060020160009054906101000a900460ff1615151461060a576040517f08c379a000000000000000000000000000000000000000000000000000000000815260040161060190610de2565b60405180910390fd5b6001600260008573ffffffffffffffffffffffffffffffffffffffff1673ffffffffffffffffffffffffffffffffffffffff16815260200190815260200160002060010181905550505050565b6000600954905090565b60001515600260003373ffffffffffffffffffffffffffffffffffffffff1673ffffffffffffffffffffffffffffffffffffffff16815260200190815260200160002060020160009054906101000a900460ff161515146106f7576040517f08c379a00000000000000000000000000000000000000000000000000000000081526004016106ee90610e4e565b60405180910390fd5b6000600260003373ffffffffffffffffffffffffffffffffffffffff1673ffffffffffffffffffffffffffffffffffffffff168152602001908152602001600020600101540361077c576040517f08c379a000000000000000000000000000000000000000000000000000000000815260040161077390610eba565b60405180910390fd5b600260003373ffffffffffffffffffffffffffffffffffffffff1673ffffffffffffffffffffffffffffffffffffffff16815260200190815260200160002060010154600082815481106107d3576107d2610b3a565b5b9060005260206000200160000160008282546107ef9190610eda565b925050819055506001600260003373ffffffffffffffffffffffffffffffffffffffff1673ffffffffffffffffffffffffffffffffffffffff16815260200190815260200160002060020160006101000a81548160ff02191690831515021790555080600260003373ffffffffffffffffffffffffffffffffffffffff1673ffffffffffffffffffffffffffffffffffffffff1681526020019081526020016000206000018190555050565b6000600854905090565b60085481565b60065481565b60055481565b60026020528060005260406000206000915090508060000154908060010154908060020160009054906101000a900460ff16905083565b600360009054906101000a900473ffffffffffffffffffffffffffffffffffffffff1681565b60075481565b6000600754905090565b600080fd5b600073ffffffffffffffffffffffffffffffffffffffff82169050919050565b600061095482610929565b9050919050565b61096481610949565b811461096f57600080fd5b50565b6000813590506109818161095b565b92915050565b60006020828403121561099d5761099c610924565b5b60006109ab84828501610972565b91505092915050565b6000819050919050565b6109c7816109b4565b82525050565b60006020820190506109e260008301846109be565b92915050565b6109f1816109b4565b81146109fc57600080fd5b50565b600081359050610a0e816109e8565b92915050565b600060208284031215610a2a57610a29610924565b5b6000610a38848285016109ff565b91505092915050565b60008115159050919050565b610a5681610a41565b82525050565b6000606082019050610a7160008301866109be565b610a7e60208301856109be565b610a8b6040830184610a4d565b949350505050565b610a9c81610949565b82525050565b6000602082019050610ab76000830184610a93565b92915050565b600082825260208201905092915050565b7f796f7520617265206e6f74206f776e6572202100000000000000000000000000600082015250565b6000610b04601383610abd565b9150610b0f82610ace565b602082019050919050565b60006020820190508181036000830152610b3381610af7565b9050919050565b7f4e487b7100000000000000000000000000000000000000000000000000000000600052603260045260246000fd5b7f4e487b7100000000000000000000000000000000000000000000000000000000600052603160045260246000fd5b7f4e487b7100000000000000000000000000000000000000000000000000000000600052601160045260246000fd5b6000610bd2826109b4565b91507fffffffffffffffffffffffffffffffffffffffffffffffffffffffffffffffff8203610c0457610c03610b98565b5b600182019050919050565b6000819050919050565b610c2a610c25826109b4565b610c0f565b82525050565b60008160601b9050919050565b6000610c4882610c30565b9050919050565b6000610c5a82610c3d565b9050919050565b610c72610c6d82610949565b610c4f565b82525050565b6000610c848285610c19565b602082019150610c948284610c61565b6014820191508190509392505050565b7f4e487b7100000000000000000000000000000000000000000000000000000000600052601260045260246000fd5b6000610cde826109b4565b9150610ce9836109b4565b925082610cf957610cf8610ca4565b5b828206905092915050565b7f6f776e6572207761732072656769737465726420616c72656164792021000000600082015250565b6000610d3a601d83610abd565b9150610d4582610d04565b602082019050919050565b60006020820190508181036000830152610d6981610d2d565b9050919050565b7f6e657720766f746572206d757374206e6f7420766f746520616c72656164792060008201527f2100000000000000000000000000000000000000000000000000000000000000602082015250565b6000610dcc602183610abd565b9150610dd782610d70565b604082019050919050565b60006020820190508181036000830152610dfb81610dbf565b9050919050565b7f20796f752020766f74656420616c726561647920212100000000000000000000600082015250565b6000610e38601683610abd565b9150610e4382610e02565b602082019050919050565b60006020820190508181036000830152610e6781610e2b565b9050919050565b7f20796f752068617665206e6f7420726567697374657264207965742021000000600082015250565b6000610ea4601d83610abd565b9150610eaf82610e6e565b602082019050919050565b60006020820190508181036000830152610ed381610e97565b9050919050565b6000610ee5826109b4565b9150610ef0836109b4565b9250827fffffffffffffffffffffffffffffffffffffffffffffffffffffffffffffffff03821115610f2557610f24610b98565b5b82820190509291505056fea26469706673582212200586f32327ca6dfbc55b9bd26d4f99b08a7e2407b46a9e622135556762a61b0464736f6c634300080f0033",
  "immutableReferences": {},
  "source": "// SPDX-License-Identifier: MIT\r\n\r\npragma solidity ^0.8.0;\r\n\r\n/*  \r\n\r\nEntity ===> Data Structure :\r\n\r\n    1) Proposal ==> struct\r\n    2) list of proposals ==> struct[]\r\n    3) voter ==> struct \r\n    4) Voters ==> mapping(address => struct)\r\n    5) chairperson => address\r\n\r\nFunctionality ===> function\r\n\r\n    1) register\r\n    2) vote\r\n    3) count    \r\n\r\n*/\r\n\r\ncontract Ballot{\r\n\r\n    struct Proposal {\r\n\r\n        uint voteCount;\r\n\r\n    }\r\n\r\n    Proposal[] proposals ;\r\n\r\n\r\n    enum StateTransition {     // by this enum we can manage the event.\r\n\r\n        Register ,\r\n        Vote , \r\n        Count\r\n    }\r\n\r\n    StateTransition status ;\r\n\r\n\r\n    struct Voter {\r\n\r\n        uint vote_id;\r\n\r\n        uint voteWeidth;\r\n\r\n        bool voted;\r\n\r\n    }\r\n\r\n    mapping( address => Voter ) public voters;\r\n\r\n    address public chairPerson ;\r\n\r\n    uint[] sameVoteCount ;\r\n\r\n    uint public nuuum = 1234;\r\n\r\n    uint public startTime ;\r\n\r\n    uint public WinnerID;\r\n\r\n    uint public WinnerCount;\r\n\r\n    uint probNumber;\r\n\r\n\r\n    constructor( uint8 proposalValue ){\r\n\r\n        chairPerson = msg.sender ;\r\n\r\n        probNumber= proposalValue;\r\n\r\n        startTime = block.timestamp;\r\n\r\n        for(uint i=0 ; i<proposalValue ; i++){\r\n\r\n            proposals.push(Proposal({voteCount:0}));\r\n\r\n        }\r\n\r\n        voters[chairPerson].voteWeidth=2;\r\n\r\n        status = StateTransition.Register;\r\n\r\n    }\r\n\r\n\r\n    function get_probNumber() public view returns(uint){\r\n\r\n        return probNumber;\r\n    }\r\n\r\n    function get_winnerID() public view returns(uint){\r\n\r\n        return WinnerID;\r\n    }\r\n\r\n        function get_WinnerCount() public view returns(uint){\r\n\r\n        return WinnerCount ;\r\n    }\r\n\r\n    modifier onlyowner(){\r\n\r\n        require(msg.sender==chairPerson , \"you are not owner !\");  // only owner can register new voter !\r\n        _;\r\n\r\n    }\r\n\r\n\r\n    modifier once_register(address newVoter){\r\n\r\n            require(newVoter != msg.sender , \"owner was registerd already !\");  // owner can not register twice !\r\n            _;\r\n    }\r\n\r\n\r\n    modifier not_vote_before(address newVoter){\r\n\r\n         require( voters[newVoter].voted == false , \"new voter must not vote already !\");  // register only new voter  !!\r\n         _;\r\n    }\r\n\r\n    modifier RegisterTime() {\r\n\r\n        require(status==StateTransition.Register , \"it is not register time\");\r\n        _;\r\n\r\n    }\r\n\r\n    // modifier updateStatus() {\r\n\r\n    //     if(block.timestamp-startTime < 600){\r\n\r\n    //         status=StateTransition.Register;  // 30 seconds to register voters after deploy contract\r\n    //     }\r\n\r\n    //     else if (block.timestamp-startTime < 900){\r\n\r\n    //         status=StateTransition.Vote; // 30-60 seconds after deploy is time of voting.\r\n    //     }\r\n\r\n    //     else if (block.timestamp-startTime < 1800){\r\n\r\n    //         status=StateTransition.Count; // 60-90 seconds after deploy is time of counting.\r\n    //     }\r\n    //     _;\r\n\r\n    // }\r\n\r\n\r\n    function register(address newVoter) public  onlyowner once_register(newVoter) not_vote_before(newVoter)  {\r\n\r\n        voters[newVoter].voteWeidth = 1;  // register complited !\r\n\r\n    }\r\n\r\n\r\n    modifier not_voted_before(){\r\n\r\n        require( voters[msg.sender].voted == false , \" you  voted already !!\");  // voter must not vote already !\r\n        _;\r\n    }\r\n\r\n    modifier registerd_before(){\r\n\r\n        require( voters[msg.sender].voteWeidth !=0 , \" you have not registerd yet !\"); // voter must have registerd already !\r\n        _;\r\n\r\n    }\r\n\r\n    \r\n    modifier VotingTime() {\r\n\r\n        require(status==StateTransition.Vote , \"it is not vote time\");\r\n        _;\r\n\r\n    }\r\n\r\n\r\n    function vote_(uint voteId) public  not_voted_before registerd_before  {\r\n\r\n        proposals[voteId].voteCount += voters[msg.sender].voteWeidth ; \r\n\r\n        voters[msg.sender].voted = true ;\r\n\r\n        voters[msg.sender].vote_id = voteId ;\r\n\r\n    }\r\n\r\n\r\n    modifier CountTime() {\r\n\r\n        require(status==StateTransition.Count , \"it is not count time\");\r\n        _;\r\n\r\n    }\r\n\r\n\r\n    function count() public  onlyowner {\r\n\r\n\r\n\r\n        // sameVoteCount.push(proposals[0].voteCount);\r\n\r\n        for(uint i = 0 ; i < proposals.length ; i++){\r\n\r\n                if(proposals[i].voteCount > WinnerCount){\r\n\r\n                    WinnerCount = proposals[i].voteCount;\r\n\r\n                    WinnerID = i ;\r\n\r\n                    while(sameVoteCount.length !=0){\r\n\r\n                        sameVoteCount.pop();\r\n\r\n                    }\r\n\r\n                    sameVoteCount.push(i);\r\n\r\n                }\r\n\r\n                else if (proposals[i].voteCount == WinnerCount){\r\n                    \r\n                        sameVoteCount.push(i);\r\n\r\n                }\r\n\r\n\r\n\r\n        }\r\n\r\n        WinnerID = sameVoteCount[uint(keccak256(abi.encodePacked(block.timestamp, msg.sender))) % sameVoteCount.length] ;\r\n        WinnerCount = proposals[WinnerID].voteCount ;\r\n\r\n    }\r\n\r\n}",
  "sourcePath": "H:\\Alidity_4\\proj12\\Contract\\contracts\\Ballot.sol",
  "compiler": {
    "name": "solc",
    "version": "0.8.15+commit.e14f2714.Emscripten.clang"
  },
  "schemaVersion": "3.4.8",
  "updatedAt": "2022-08-29T05:51:14.645Z",
  "networkType": "ethereum",
  "devdoc": {
    "kind": "dev",
    "methods": {},
    "version": 1
  },
  "userdoc": {
    "kind": "user",
    "methods": {},
    "version": 1
  }
}